{
  "contractName": "HelloWorld",
  "abi": [
    {
      "inputs": [
        {
          "internalType": "uint8",
          "name": "_age",
          "type": "uint8"
        }
      ],
      "stateMutability": "nonpayable",
      "type": "constructor"
    },
    {
      "inputs": [],
      "name": "age",
      "outputs": [
        {
          "internalType": "uint8",
          "name": "",
          "type": "uint8"
        }
      ],
      "stateMutability": "view",
      "type": "function",
      "constant": true
    },
    {
      "inputs": [],
      "name": "getAge",
      "outputs": [
        {
          "internalType": "uint8",
          "name": "",
          "type": "uint8"
        }
      ],
      "stateMutability": "view",
      "type": "function",
      "constant": true
    },
    {
      "inputs": [
        {
          "internalType": "uint8",
          "name": "_age",
          "type": "uint8"
        }
      ],
      "name": "setAge",
      "outputs": [],
      "stateMutability": "nonpayable",
      "type": "function"
    },
    {
      "inputs": [
        {
          "internalType": "uint8",
          "name": "_Xuage",
          "type": "uint8"
        }
      ],
      "name": "getXuAge",
      "outputs": [
        {
          "internalType": "uint8",
          "name": "",
          "type": "uint8"
        }
      ],
      "stateMutability": "view",
      "type": "function",
      "constant": true
    }
  ],
  "bytecode": "0x608060405234801561001057600080fd5b5060405161033d38038061033d83398181016040528101906100329190610090565b806000806101000a81548160ff021916908360ff160217905550506100bd565b600080fd5b600060ff82169050919050565b61006d81610057565b811461007857600080fd5b50565b60008151905061008a81610064565b92915050565b6000602082840312156100a6576100a5610052565b5b60006100b48482850161007b565b91505092915050565b610271806100cc6000396000f3fe608060405234801561001057600080fd5b506004361061004c5760003560e01c8063262a9dff146100515780635b0c8d701461006f5780637a0c788a1461008b578063967e6e65146100bb575b600080fd5b6100596100d9565b604051610066919061015c565b60405180910390f35b610089600480360381019061008491906101a8565b6100ea565b005b6100a560048036038101906100a091906101a8565b610107565b6040516100b2919061015c565b60405180910390f35b6100c361012a565b6040516100d0919061015c565b60405180910390f35b60008054906101000a900460ff1681565b806000806101000a81548160ff021916908360ff16021790555050565b60008060009054906101000a900460ff16826101239190610204565b9050919050565b60008060009054906101000a900460ff16905090565b600060ff82169050919050565b61015681610140565b82525050565b6000602082019050610171600083018461014d565b92915050565b600080fd5b61018581610140565b811461019057600080fd5b50565b6000813590506101a28161017c565b92915050565b6000602082840312156101be576101bd610177565b5b60006101cc84828501610193565b91505092915050565b7f4e487b7100000000000000000000000000000000000000000000000000000000600052601160045260246000fd5b600061020f82610140565b915061021a83610140565b92508260ff038211156102305761022f6101d5565b5b82820190509291505056fea2646970667358221220bf674a410147a4bf38e0a4585fdb65e00a83991912a098ac87be920b9275dce164736f6c634300080f0033",
  "immutableReferences": {},
  "source": "// SPDX-License-Identifier: MIT\npragma solidity >=0.4.22 <0.9.0;\n\ncontract HelloWorld {\n    uint8 public age;\n\n    constructor(uint8 _age) {\n        age = _age;\n    }\n\n    function getAge() public view returns (uint8) {\n        return age;\n    }\n\n    function setAge(uint8 _age) public {\n        age = _age;\n    }\n\n    function getXuAge(uint8 _Xuage) public view returns (uint8) {\n        return _Xuage + age;\n    }\n}\n",
  "sourcePath": "D:\\CODE\\BLOCKCHAINS\\paramterContract\\contracts\\HelloWorld.sol",
  "compiler": {
    "name": "solc",
    "version": "0.8.15+commit.e14f2714.Emscripten.clang"
  },
  "schemaVersion": "3.4.8",
  "updatedAt": "2022-07-27T02:51:35.435Z",
  "networkType": "ethereum",
  "devdoc": {
    "kind": "dev",
    "methods": {},
    "version": 1
  },
  "userdoc": {
    "kind": "user",
    "methods": {},
    "version": 1
  }
}